:020000040000fa
:080000000002040000000000f2
:020000040000fa
:04000800fa020000f8
:020000040000fa
:04000c00fa020000f4
:020000040000fa
:04001000fa020000f0
:020000040000fa
:04001400fa020000ec
:020000040000fa
:04001800fa020000e8
:020000040000fa
:04001c00fa020000e4
:020000040000fa
:04002000fa020000e0
:020000040000fa
:04002400fa020000dc
:020000040000fa
:04002800fa020000d8
:020000040000fa
:04002c00fa020000d4
:020000040000fa
:04003000fa020000d0
:020000040000fa
:04003400fa020000cc
:020000040000fa
:04003800fa020000c8
:020000040000fa
:04003c00fa020000c4
:020000040000fa
:04004000fa020000c0
:020000040000fa
:04004400fa020000bc
:020000040000fa
:04004800fa020000b8
:020000040000fa
:04004c00fa020000b4
:020000040000fa
:04005000fa020000b0
:020000040000fa
:04005400fa020000ac
:020000040000fa
:04005800fa020000a8
:020000040000fa
:04005c00fa020000a4
:020000040000fa
:04006000fa020000a0
:020000040000fa
:04006400fa0200009c
:020000040000fa
:04006800fa02000098
:020000040000fa
:04006c00fa02000094
:020000040000fa
:04007000fa02000090
:020000040000fa
:04007400fa0200008c
:020000040000fa
:04007800fa02000088
:020000040000fa
:04007c00fa02000084
:020000040000fa
:04008000fa02000080
:020000040000fa
:04008400fa0200007c
:020000040000fa
:04008800fa02000078
:020000040000fa
:04008c00fa02000074
:020000040000fa
:04009000fa02000070
:020000040000fa
:04009400fa0200006c
:020000040000fa
:04009800fa02000068
:020000040000fa
:04009c00fa02000064
:020000040000fa
:0400a000fa02000060
:020000040000fa
:0400a400fa0200005c
:020000040000fa
:0400a800fa02000058
:020000040000fa
:0400ac00fa02000054
:020000040000fa
:0400b000fa02000050
:020000040000fa
:0400b400fa0200004c
:020000040000fa
:0400b800fa02000048
:020000040000fa
:0400bc00fa02000044
:020000040000fa
:0400c000fa02000040
:020000040000fa
:0400c400fa0200003c
:020000040000fa
:0400c800fa02000038
:020000040000fa
:0400cc00fa02000034
:020000040000fa
:0400d000fa02000030
:020000040000fa
:0400d400fa0200002c
:020000040000fa
:0400d800fa02000028
:020000040000fa
:0400dc00fa02000024
:020000040000fa
:0400e000fa02000020
:020000040000fa
:0400e400fa0200001c
:020000040000fa
:0400e800fa02000018
:020000040000fa
:0400ec00fa02000014
:020000040000fa
:0400f000fa02000010
:020000040000fa
:0400f400fa0200000c
:020000040000fa
:0400f800fa02000008
:020000040000fa
:0400fc00fa02000004
:020000040000fa
:04010000fa020000ff
:020000040000fa
:04010400fa020000fb
:020000040000fa
:04010800fa020000f7
:020000040000fa
:04010c00fa020000f3
:020000040000fa
:04011000fa020000ef
:020000040000fa
:04011400fa020000eb
:020000040000fa
:04011800fa020000e7
:020000040000fa
:04011c00fa020000e3
:020000040000fa
:04012000fa020000df
:020000040000fa
:04012400fa020000db
:020000040000fa
:04012800fa020000d7
:020000040000fa
:04012c00fa020000d3
:020000040000fa
:04013000fa020000cf
:020000040000fa
:04013400fa020000cb
:020000040000fa
:04013800fa020000c7
:020000040000fa
:04013c00fa020000c3
:020000040000fa
:04014000fa020000bf
:020000040000fa
:04014400fa020000bb
:020000040000fa
:04014800fa020000b7
:020000040000fa
:04014c00fa020000b3
:020000040000fa
:04015000fa020000af
:020000040000fa
:04015400fa020000ab
:020000040000fa
:04015800fa020000a7
:020000040000fa
:04015c00fa020000a3
:020000040000fa
:04016000fa0200009f
:020000040000fa
:04016400fa0200009b
:020000040000fa
:04016800fa02000097
:020000040000fa
:04016c00fa02000093
:020000040000fa
:04017000fa0200008f
:020000040000fa
:04017400fa0200008b
:020000040000fa
:04017800fa02000087
:020000040000fa
:04017c00fa02000083
:020000040000fa
:04018000fa0200007f
:020000040000fa
:04018400fa0200007b
:020000040000fa
:04018800fa02000077
:020000040000fa
:04018c00fa02000073
:020000040000fa
:04019000fa0200006f
:020000040000fa
:04019400fa0200006b
:020000040000fa
:04019800fa02000067
:020000040000fa
:04019c00fa02000063
:020000040000fa
:0401a000fa0200005f
:020000040000fa
:0401a400fa0200005b
:020000040000fa
:0401a800fa02000057
:020000040000fa
:0401ac00fa02000053
:020000040000fa
:0401b000fa0200004f
:020000040000fa
:0401b400fa0200004b
:020000040000fa
:0401b800fa02000047
:020000040000fa
:0401bc00fa02000043
:020000040000fa
:0401c000fa0200003f
:020000040000fa
:0401c400fa0200003b
:020000040000fa
:0401c800fa02000037
:020000040000fa
:0401cc00fa02000033
:020000040000fa
:0401d000fa0200002f
:020000040000fa
:0401d400fa0200002b
:020000040000fa
:0401d800fa02000027
:020000040000fa
:0401dc00fa02000023
:020000040000fa
:0401e000fa0200001f
:020000040000fa
:0401e400fa0200001b
:020000040000fa
:0401e800fa02000017
:020000040000fa
:0401ec00fa02000013
:020000040000fa
:0401f000fa0200000f
:020000040000fa
:0401f400fa0200000b
:020000040000fa
:0401f800fa02000007
:020000040000fa
:0401fc00fa02000003
:020000040000fa
:04020000fa020000fe
:020000040000fa
:04020400fa020000fa
:020000040000fa
:04020800fa020000f6
:020000040000fa
:04020c00fa020000f2
:020000040000fa
:04021000fa020000ee
:020000040000fa
:04021400fa020000ea
:020000040000fa
:04021800fa020000e6
:020000040000fa
:04021c00fa020000e2
:020000040000fa
:04022000fa020000de
:020000040000fa
:04022400fa020000da
:020000040000fa
:04022800fa020000d6
:020000040000fa
:04022c00fa020000d2
:020000040000fa
:04023000fa020000ce
:020000040000fa
:04023400fa020000ca
:020000040000fa
:04023800fa020000c6
:020000040000fa
:04023c00fa020000c2
:020000040000fa
:04024000fa020000be
:020000040000fa
:04024400fa020000ba
:020000040000fa
:04024800fa020000b6
:020000040000fa
:04024c00fa020000b2
:020000040000fa
:04025000fa020000ae
:020000040000fa
:04025400fa020000aa
:020000040000fa
:04025800fa020000a6
:020000040000fa
:04025c00fa020000a2
:020000040000fa
:04026000fa0200009e
:020000040000fa
:04026400fa0200009a
:020000040000fa
:04026800fa02000096
:020000040000fa
:04026c00fa02000092
:020000040000fa
:04027000fa0200008e
:020000040000fa
:04027400fa0200008a
:020000040000fa
:04027800fa02000086
:020000040000fa
:04027c00fa02000082
:020000040000fa
:04028000fa0200007e
:020000040000fa
:100400004f2021000edf27000e01880000000000b1
:10041000000020000000e000020032000001200087
:100420002002880014000700740007000000e000ac
:1004300003003a00003020000100200002003700d5
:100440000000200001002000810f70000100320038
:100450000f000700000020000000e0000200320052
:100460000000020000000000d805020000000000ab
:100470000040da000000fe00200020000000e00044
:1004800002003200100020009001880000000600e9
:10049000a1028800800478000000eb001f003700f4
:1004a000e284440054a0b4009905ba00e2844400f8
:1004b00054a0b4009906ba00e284440054a0b400e9
:1004c0000006eb00476fde00fd07b200ae018800ba
:1004d000636ce10003003a000ad801000000eb0061
:1004e0000e003700606ce10008003a00004deb00a0
:1004f0000a05e800020039003420ec000af0a000f0
:100500008b05e900f9ff3e00040037006168e10057
:10051000010032000086eb000b00070019c7ba008b
:100520000e04e0001905ba0003003a000a00e000da
:10053000dbff3a0000000600fe07b200ae028800b2
:100540008a047800f5ff37000cd0a300e20f4d00bd
:100550001c00390089027800354dba000a05e80010
:10056000020039003420ec000af0a0008b05e900fd
:100570000f003200254dba000a05e80002003900dc
:100580003420ec000af0a0008b05e90008003200de
:100590000c00e0000600320015cdba000a05e800a4
:1005a000020039003420ec000af0a0008b05e900bd
:1005b0008984e80054a0b4000b00e000e2ff3a0098
:1005c000000006009902ba00055d78008b05e9007d
:1005d000f7ff3200c82ade00055d78008b05e900d0
:1005e000f3ff32000c00e000f1ff320019ddba0029
:1005f000eeff37000040da000000fe0000000500ba
:020000040000fa
:10060000041000000002000082000000000015003d
:10061000002900003e005300006800007d009200a9
:1006200000a70000bd00d30000e900000001160093
:10063000012d010045015c00017401008d01a50040
:1006400001be0100d801f100010b020025023f00ac
:10065000025a020075028f0002aa0200c502e100e0
:1006600002fc020017033200034c03006703810001
:10067000039b0300b503ce0003e70300ff0317004d
:10068000042e040044045a00046f040083049600fe
:1006900004a80400b904c80004d70400e504f1006c
:1006a00004fd040007050f00051705001d052200c5
:1006b000052505002705280005270500250522003a
:1006c000051d050017050f0005070500fd04f100d5
:1006d00004e50400d704c80004b90400a804960087
:1006e000048304006f045a00044404002e0417001d
:1006f00004ff0300e703ce0003b503009b03810062
:10070000036703004c03320003170300fc02e100ff
:1007100002c50200aa028f00027502005a023f00c1
:10072000022502000b02f10001d80100be01a50064
:10073000018d010074015c00014501002d011600ce
:1007400001000100e900d30000bd0000a7009200f5
:10075000007d000068005300003e000029001500e5
:1007600000000000ebffd700ffc2ff00adff9800c4
:10077000ff83ff006eff5900ff43ff002dff1700ae
:10078000ff00ff00eafed300febbfe00a4fe8c00cb
:10079000fe73fe005bfe4200fe28fe000ffef50029
:1007a000fddbfd00c1fda600fd8bfd0071fd5600c7
:1007b000fd3bfd001ffd0400fde9fc00cefcb40084
:1007c000fc99fc007ffc6500fc4bfc0032fc19002e
:1007d000fc01fc00e9fbd200fbbcfb00a6fb910086
:1007e000fb7dfb006afb5800fb47fb0038fb290040
:1007f000fb1bfb000ffb0300fbf9fa00f1fae90019
:10080000fae3fa00defadb00fad9fa00d8fad900e6
:10081000fadbfa00defae300fae9fa00f1faf9008d
:10082000fa03fb000ffb1b00fb29fb0038fb470012
:10083000fb58fb006afb7d00fb91fb00a6fbbc00a4
:10084000fbd2fb00e9fb0100fc19fc0032fc4b0071
:10085000fc65fc007ffc9900fcb4fc00cefce900c8
:10086000fc04fd001ffd3b00fd56fd0071fd8b00eb
:10087000fda6fd00c1fddb00fdf5fd000ffe28001b
:10088000fe42fe005bfe7300fe8cfe00a4febb0079
:10089000fed3fe00eafe0000ff17ff002dff43001d
:1008a000ff59ff006eff8300ff98ff00adffc200fd
:1008b000ffd7ff00ebff0000007e000000020000f9
:1008c000820000004f0058000060000068007000c7
:1008d000007700007d008300008800008c009000fd
:1008e00000930000950097000098000099009a007e
:1008f000009a000099009900009900009800980063
:100900000098000099009a00009b00009d00a00044
:1009100000a40000a900af0000b60000be00c700a0
:1009200000d20000de00eb0000f900000901190010
:10093000012b01003e015100016501007a01900088
:1009400001a60100bc01d30001e90100ff0115006f
:10095000022b02003f025300026602007702880069
:1009600002970200a402b00002bb0200c302ca0048
:1009700002cf0200d202d30002d20200d002cb008a
:1009800002c50200bd02b40002a902009d028f0050
:100990000280020070025f00024e02003c02290049
:1009a000021602000202ef0001db0100c701b400e1
:1009b00001a001008d017b00016901005701460083
:1009c000013501002501160001070100f900eb00c7
:1009d00000dd0000d000c40000b80000ac00a000a2
:1009e0000095000089007e000073000068005d0033
:1009f0000052000047003c000031000026001b00b0
:100a0000001000000500fa00ffefff00e4ffd9002e
:100a1000ffcfff00c5ffbb00ffb1ff00a8ffa00094
:100a2000ff98ff0090ff8900ff83ff007dff7800a3
:100a3000ff74ff0070ff6d00ff6bff0069ff68002f
:100a4000ff67ff0066ff6600ff67ff0067ff670044
:100a5000ff68ff0068ff6800ff67ff0066ff650032
:100a6000ff63ff0060ff5c00ff57ff0051ff4a007b
:100a7000ff42ff0039ff2e00ff22ff0015ff070095
:100a8000fff7fe00e7fed500fec2fe00affe9b00b2
:100a9000fe86fe0070fe5a00fe44fe002dfe17008a
:100aa000fe01fe00ebfdd500fdc1fd00adfd9a008d
:100ab000fd89fd0078fd6900fd5cfd0050fd4500ed
:100ac000fd3dfd0036fd3100fd2efd002dfd2e000b
:100ad000fd30fd0035fd3b00fd43fd004cfd5700a2
:100ae000fd63fd0071fd8000fd90fd00a1fdb200e1
:100af000fdc4fd00d7fdea00fdfefd0011fe25004e
:100b0000fe39fe004cfe6000fe73fe0085fe97007d
:100b1000fea9fe00bafecb00fedbfe00eafef900f5
:100b2000fe07ff0015ff2300ff30ff003cff4800d9
:100b3000ff54ff0060ff6b00ff77ff0082ff8d0016
:100b4000ff98ff00a3ffae00ffb9ff00c4ffcf0076
:100b5000ffdaff00e5fff000fffbff0006001100d9
:100b6000001c000027003100003b00004500000091
:100b700000100000040000008000000000000000e1
:020000040000fa
:100b80004400a800480021000ae027004604c300f2
:100b9000ff0009004604c0004800c80010018000a2
:100ba000008088002001800010808800000006007e
:100bb0000000fa00f2ff07000000eb000080fa00de
:040bc000000006002b
:00000001FF
